:020000040800F2
:10000000382A002035020008A336000865330008AE
:10001000A13600088D1C00082D40000800000000DB
:10002000000000000000000000000000C93B0008C4
:100030001B1D000800000000C73B0008CB3B000868
:100040004F0200084F0200084F0200084F0200084C
:100050004F0200084F0200084F0200084F0200083C
:100060004F0200084F0200084F0200084F0200082C
:100070004F0200084F0200084F0200084F0200081C
:100080004F0200084F0200084F0200084F0200080C
:100090004F0200084F0200084F0200084F020008FC
:1000A0004F0200084F0200084F0200084F020008EC
:1000B0004F0200084F0200084F0200084F020008DC
:1000C0004F0200084F0200084F0200084F020008CC
:1000D0004F0200084F0200084F0200084F020008BC
:1000E0004F0200084F0200084F02000800F002F81B
:1000F00000F090F80AA090E8000C82448344AAF132
:100100000107DA4501D100F085F8AFF2090EBAE82F
:100110000F0013F0010F18BFFB1A43F0010318473B
:100120006C4D00008C4D0000103A24BF78C878C197
:10013000FAD8520724BF30C830C144BF04680C60ED
:10014000704700000023002400250026103A28BF35
:1001500078C1FBD8520728BF30C148BF0B60704739
:100160006E2900F0A381702900F0E582662904F071
:10017000B781652904F0B481672904F0B181612950
:1001800004F0B08103681B0A28BF41F0800169298F
:1001900000F05081642900F04D81752900F04A81FA
:1001A0006F2900F07282782900F0B182E92900F00D
:1001B0000D82E42900F00A82F52900F00782EF2978
:1001C00000F06F82F82900F0B0820368DB0928BFD5
:1001D00041F08001632900F0B387732900F0B887EC
:1001E000E32900F0C387F32900F0C8870020704797
:1001F0001FB501F019F804000020002104F05AF99D
:10020000401C60600020002104F03EF9E0601FBD4A
:1002100010B510BD00F0DAFF1146FFF7E9FF03F05B
:1002200031FF01F0B7F803B4FFF7F2FF03BC01F0B0
:10023000BBF800000948804709480047FEE7FEE791
:10024000FEE7FEE7FEE7FEE7FEE7FEE7FEE7FEE786
:1002500004480549054A064B70470000473C000822
:10026000ED00000838240020382A0020382600201D
:10027000382600201CB50C46064B7B44694600908E
:10028000204600F02CF904460020694600F03AF9B7
:1002900020461CBD870200004FF0000200B5134647
:1002A00094469646203922BFA0E80C50A0E80C5096
:1002B000B1F12001BFF4F7AF090728BFA0E80C5047
:1002C00048BF0CC05DF804EB890028BF40F8042B40
:1002D00008BF704748BF20F8022B11F0804F18BFAD
:1002E00000F8012B704700004FF0013C50F8042B40
:1002F00051F8043B9A4221D1A2EB0C03934313EA39
:10030000CC1317D150F8042B51F8043B9A4215D165
:10031000A2EB0C03934313EACC130BD150F8042B3C
:1003200051F8043B9A4209D1A2EB0C03934313EA20
:10033000CC13DBD04FF00000704700BFD01A01BAD9
:10034000B1FA81F101F0180122FA01F0CB40C1F1BC
:100350002001DBB2C0B2C01A2CFA01F3D11A9143CA
:1003600011EAC311E6D1704770477047704770B506
:10037000044685690068C10601D5302600E02026C4
:10038000C00707D070BDD4E9012130469047206AEC
:10039000401C20626D1EF6D570BD70B5044685699F
:1003A0000078C00707D170BDD4E901212020904713
:1003B000206A401C20626D1EF6D570BD09684A0592
:1003C00001D540B27047C905FCD500B27047096835
:1003D0004A0501D5C0B27047C905FCD580B2704747
:1003E00070B50C460546012A05D02878800600D550
:1003F000EA69002302E0012305E05B1C934202D27C
:10040000E05C0028F9D1A869E618C01AA861286A3A
:10041000184428622846FFF7AAFF04E0D5E9012125
:1004200014F8010B9047B442F8D32846FFF7B5FF04
:1004300070BD00002DE9F0410646002410687529C2
:10044000314616A510D0FFF7B9FF002802DA404266
:1004500013A507E031688A0701D512A502E0490714
:1004600004D511A5012401E0FFF7B1FF00210A2204
:1004700006F1240709E0B0FBF2FCB0FBF2F302FB4B
:100480001C00303078541846491C0028F3D123460C
:100490002A463046BDE8F04100F061BA0000000095
:1004A0002D0000002B0000002000000011680268F1
:1004B000006A530501D508700AE0D30501D508800C
:1004C00006E0130603D5C217C1E9000200E0086088
:1004D0000120704701694A1C02610878704700B525
:1004E0008FB0CDE901310021059105497944CDE96D
:1004F00003101146684600F029F90FB000BD000056
:10050000E5FFFFFF0A6802F8010B0A607047000070
:100510002DE9FF5F15468A460446DFF8AC80F844B3
:100520000027D8E900103E46CDE9001010E03AF867
:1005300016106A4602A800F025FE411C07D021785B
:10054000890603D5E269391891420DD80744761C13
:100550002078800602D5E069B84205DDAE42E6DBD0
:100560003AF816000028E2D1A069C01BA06120461D
:10057000FFF7FDFED8E90010CDE90010002017E0DC
:100580003AF818106A4602A800F0FCFDB0F1FF3FEF
:1005900081460BD000250DF1080B05E0D4E90121BF
:1005A0001BF8050090476D1C4D45F7D308F101007D
:1005B000B0428046E4DB206A384420622046FFF7E0
:1005C000ECFEBDE8FF9F00006E4800002DE9F04101
:1005D0008046D21D22F007020025D2E90002F5294B
:1005E00015A614D0011E72F1000106DA0023D0EB2B
:1005F000030063EB020211A608E0D8F800108B0795
:1006000001D50FA602E0490701D50EA60125114626
:10061000002408F1240704E000F05CF930323A5578
:10062000641C50EA0102F7D12B463246214640466F
:10063000BDE8F04100F093B9000000002D0000007B
:100640002B0000002000000030B4002100F1240441
:1006500008E002F00705D208303542EA4372DB08B1
:100660006554491C52EA0305F3D10468002310A223
:10067000250707D5A40600D421B1C46901230DA222
:10068000641EC46130BC00F06AB910B5044621464E
:100690001068FFF79CFE02462046BDE8104000238C
:1006A000D2E7D21D22F00701D1E90023CCE70000F8
:1006B0000000000030000000F0B40D46018809057C
:1006C00002D5214C7C4402E01F4C7C440E340021B6
:1006D00000F1240608E002F00F071209E75D42EA84
:1006E00003721B097754491C52EA0307F3D10278BD
:1006F0000023120704D5702D06D009B1022311344E
:100700002246F0BC00F02BB901231034F8E770B595
:1007100004460D4621461068FFF759FE0246294659
:100720002046BDE870400023C6E7D21D22F0070333
:10073000D3E90023C0E70368126843F02003036095
:100740000823C3610023B7E7D04600002DE9F05F1E
:10075000894604464FF0000ADFF874B1FB44C0F844
:1007600020A02046E1688847002874D0252806D0BC
:10077000D4E901219047206A401C2062F1E700265D
:100780005F462046E16888472028054607DB312D73
:1007900005D2781910F8200C08B10643F1E7B0072C
:1007A00001D526F00406C4F81CA00027C4F818A040
:1007B0002A2D09D0284603F05EFC38B304EB8708E5
:1007C000303DC8F8185019E059F8041B204604EBD6
:1007D00087029161E1688847012F054618D1E069D9
:1007E000002820DA26F020061DE0D8F8180000EBDB
:1007F000800005EB40003038C8F818002046E1685A
:100800008847054603F037FC0028EED1012F0AD0B7
:100810002E2D08D12046E16888477F1C0546022F0F
:1008200046F02006C4DBA069002803DA404246F007
:100830000106A061F00701D026F010066C2D0BD048
:10084000682D09D04C2D39D06A2D35D0742D35D076
:100850007A2D33D016E038E0E1682F4620468847ED
:10086000B842054609D16C2F26D04FF48060E1686C
:10087000064320468847054604E06C2F1AD04FF403
:10088000807006430DB3A5F14100192802D8203528
:1008900046F400664A462946204626604E46FFF743
:1008A0005FFC80B101280BD0F61D26F0070000F197
:1008B000080956E74020E4E78020D8E70020D6E783
:1008C00006F104094DE7284652E7206ABDE8F09F8B
:1008D0006046000030B5B0F10A024FEA900E71F1A7
:1008E00000034EEA817EB0EB0E0061EB91014FEA0E
:1008F000101E4EEA017E10EB0E0041EB11114FEA83
:10090000102E4EEA016E10EB0E0041EB11214FEA62
:10091000104E4EEA014E10EB0E0041EB1141401813
:1009200041F100014FEAD00040EA41704FEAD101A5
:1009300010EB80054FEA810444EA907444EB010413
:100940006D1944EB0404521BA3414FF0000348BF50
:100950000A3200D530BD401C41F1000130BD2DE907
:10096000F0470D4699469246044600F12408016876
:10097000880604D5E06921F01001216000E0012023
:10098000A84201DD471B00E00027A1697A1902EBAC
:100990000900081AA0612078C00602D42046FFF79B
:1009A000E6FC002608E0D4E901211AF80600904789
:1009B000206A401C761C20624E45F4DB2078C0067D
:1009C0000AD52046FFF7D3FC06E0D4E90121302008
:1009D0009047206A401C2062381EA7F10107F4DC12
:1009E00007E0D4E9012118F805009047206A401C6F
:1009F0002062281EA5F10105F3DC2046FFF7CDFC9F
:100A00002078000602D50220BDE8F0870120FBE730
:100A100070472DE9FF4F0C461E464FF0FF378BB055
:100A2000D2E90001DDF860800A908A46C1F30A55D8
:100A300005B93D46002108464FF00000BAF1000F0D
:100A400000F4400005DA00EB80004FF4400101EAB9
:100A500050004FEA9059B9F1010F00DDB9460A98EC
:100A600050EA4A000ED044F61050A5F2FF35454337
:100A70002F14B8F1000F1ED07542291E1EDDC9F1DA
:100A800000021CE0B8F1010F4FF0000001D030214E
:100A900003E0F24305E02154401CB042FBDB30464A
:100AA0000022002121540B99C1F80880C1E90020DF
:100AB0000FB0BDE8F08FBD1B6D1CDEE74A4600DAC3
:100AC000694206A800F0F4FB06AB93E8070003AB0D
:100AD00083E8070050460A9900F06DFC8DE8070096
:100AE000A0F500501F3800900398002D0ADD42F257
:100AF0001F014A460844002303A90390684600F0FA
:100B0000D6FE09E0A0F500504A461F38002303A98D
:100B10000390684600F0E0FE8DE807000004000C3A
:100B200003D04FF0FF30410800E01046B8F1000F4D
:100B300003D00022009215461EE0751E05D4FFF773
:100B4000C9FE303262556D1EF9D5B3460122084305
:100B500002D000227F1C04E02078302801D100223E
:100B60007F1E002A099784D01DE0112D07DAFFF7B8
:100B7000B1FE303262556D1C50EA0102F5D10843D6
:100B800002D00098C8B10EE00021681E05E0235C89
:100B9000625C63542254401E491C8142F7DBAB4621
:100BA000A81B401E0990002004F80B000B98099A1E
:100BB000C0F80880C0E9002B7AE711264FF0000842
:100BC00057E72DE9F04F88460446D21D22F0070171
:100BD00091B0D1E90001CDE90A0103F028FA0246FB
:100BE0000B98C00F01D02D2007E02068810701D5A8
:100BF0002B2002E0202101EAC000032A099001D045
:100C0000072A05DB03464146204600F011FB0BE1B5
:100C10002078800601D5E06900E00620B8F1650F74
:100C2000814606D0B8F1660F18D0B8F1670F70D1C1
:100C300031E00020B9F1110F009001DB112301E038
:100C400009F101030AAA01A90CA8FFF7E2FEDDE9F8
:100C50000C70002609F10105834647E001204B4650
:100C600000904FF000470AAA01A90CA8FFF7D1FE97
:100C7000DDE90DB00C995D46002610B909F10100BF
:100C80000D18B9EB050003D4C0F1FF3609F10105D9
:100C9000A5EB09002BE0B9F1010F01DA4FF00109D2
:100CA0000020B9F1110F0090484601DD112300E04A
:100CB00003460AAA01A90CA8FFF7ABFEDDE90C70F8
:100CC0004D4600268346207800070AD4AB4500DA5B
:100CD0005D4601A8012D04DD411911F8011C3029E0
:100CE00007D04F4502DA17F1040F04DA01208246DB
:100CF0000FE06D1EEEE7002F02DCED1B3E4403E02B
:100D0000781CA84200DD7D1CB81B00F1010A4FF0E1
:100D100000472078000703D4AA4501DB4FF0FF3AD3
:100D20000021B7F1004F0DF143088DF8431024D096
:100D300002202B23002F01DA7F422D230A21021EDD
:100D4000A0F1010000DC5FB197FBF1FC97FBF1F231
:100D500001FB1C7C17460CF1300C08F801CDEEE7C6
:100D6000A8F1010003702188090501D5452100E0A3
:100D70006521A0F1010800F8011C09980FA9A1EB59
:100D80000807FF1D00B10120411901EBEA70A169BC
:100D90003844081A401EA0612078C00602D42046BC
:100DA000FFF7E5FA099828B1D4E901219047206AB4
:100DB000401C20622078C00622D52046FFF7D7FAD3
:100DC0001EE0002E04DBB34502DD01A8805D00E0DB
:100DD0003020D4E901219047206A401C2062761C13
:100DE000AAF101005FEA000A0AD100F01DFAC0680A
:100DF0000168405CD4E901219047206A401C2062D0
:100E0000281EA5F10105DCDC07E0D4E9012118F872
:100E1000010B9047206A401C2062381EA7F1010791
:100E2000F3DC2046FFF7B9FA032011B041E60000D9
:100E30002DE9F04F04460D46D21D22F0070089B07F
:100E4000D0E900974846394603F0F1F80246F80F1A
:100E500001D02D2307E02068810701D52B2302E074
:100E6000202101EAC0038DF820300BB1012000E001
:100E70000020032A824601D0072A04DB29462046A7
:100E800000F0D6F93FE12078800601D40D2500E07E
:100E9000E569C7F30A560D2D49DA00214FEA175BC1
:100EA00008464FF00000002F00F4400007DA00EB86
:100EB00080004FF4400100EBD07001EA6000811522
:100EC000012901DD4FF0FF3100224FEA850CBCF112
:100ED000180F06D31346ACF118004FF08052C240F1
:100EE00003E04FF4801323FA0CF30CF10C0CBCF16B
:100EF000200F04D3ACF1200C09FA0CF001E007FA42
:100F00000CF000294FF0004801DD18B90FE00ED1B8
:100F100040450CD319EB02095F4121B9404502D18C
:100F20009F4329EA0209BBEB175F00D0761C20889B
:100F3000000502D57B48784402E07A4878441938A5
:100F400008AA302302F80A30037C0AF10101002EBE
:100F50000AF1020A53546A4602DC4FF0300101E004
:100F60004FF031014FF001088DF8001002D0A6F2C9
:100F7000FF3603E059EA470100D06B4E002D02DC3A
:100F80002178090704D54FF002082E218DF80110B1
:100F9000C44600210BE0C7F303433F01C35C491C77
:100FA0006D1E02F80830052908F1010801DA002D4C
:100FB000F1DC00210CE000EB1973491C1B786D1E5D
:100FC000082902F808304FEA091908F1010801DA86
:100FD000002DF0DC21688B0602D516E0A8F101088F
:100FE000E04505DD02EB080313F8013C302BF5D09A
:100FF000B8F1000F09DD02EB080313F8013C2E2BBA
:1010000003D1090701D4A8F10108002D05DD3E2117
:1010100002F808106D1E08F10108407C002E02F84D
:10102000080008F1010804DA2D20764202F80800D1
:1010300002E02B2002F808000A214FF47A70864261
:1010400008F101080BDB96FBF0F3303302F80830AF
:1010500096FBF0F308F1010800FB136601E0642E33
:101060000CDB642096FBF0F3303302F8083096FB7B
:10107000F0F308F1010800FB136601E00A2E06DB1D
:1010800096FBF1F0303002F8080008F1010896FBF9
:10109000F1F001FB1060303002F80800A16908F19E
:1010A000010808EB050202EB0A00081AA06120788B
:1010B000C00602D42046FFF75AF9216A08AE01EBB8
:1010C0000A00206204E0D4E9012116F8010B9047E0
:1010D000BAF1010AF7D22078C00602D52046FFF700
:1010E00046F96E4609E016F8010B3E280FD0D4E908
:1010F00001219047206A401C2062B8F10108F2D219
:101100002046FFF74AF909B00320BDE8F08F206AB6
:101110002844206203E0D4E90121302090476D1E6D
:10112000EBD3F8E7AA3E000002FCFFFF10B54369CD
:1011300013B1AFF3008001E0FFF752F9012010BDB9
:10114000127800F124010A7000224A700122EDE7B2
:1011500011684FF0FF32E9E710B5436913B1AFF3FF
:10116000008001E0FFF7D4F9012010BD128800F1E2
:10117000240182840022C2840122EDE711684FF02D
:10118000FF32E9E770B516460C46054600F044F814
:10119000036893F80101012806D0FF2C0FD8185DD1
:1011A00068B101202C7070BDD3F80701324621468A
:1011B00003F2071303442846BDE8704018474FF078
:1011C000FF3070BD00487047D82300207546FFF7F8
:1011D000F9FFAE4605006946534620F007008546F4
:1011E00018B020B5FFF734F8BDE820404FF00006F6
:1011F0004FF000074FF000084FF0000B21F00701FF
:10120000AC46ACE8C009ACE8C009ACE8C009ACE841
:10121000C0098D467047000010B500F005F8001DAC
:1012200010BD00BF9132000000487047F823002035
:101230002DE9F0411F46044603260168072A01F400
:10124000006004DB08B116A505E016A503E008B1AF
:1012500015A500E015A521F010002060A069C01EB2
:10126000A0610FB1401EA0612046FFF780F84FB18A
:10127000D4E9012138469047206A401C2062C01CF6
:10128000206206E0206AFAE7D4E9012115F8010B93
:101290009047761EF8D22046FFF77FF8BDE8F08130
:1012A0004E414E006E616E00494E4600696E66000A
:1012B0002DE9F047814616468AB0354878440DC876
:1012C0008DE80D0032487844801C03AC0DC884E8DA
:1012D0000D0041F69B300844372190FBF1F290FB62
:1012E000F1F5A5F1800501FB12041B3C02D5644217
:1012F000012000E00020DFF898A080460027FA4493
:10130000AAF1BE0A0EE0E0070AD03246684607EBB3
:10131000470101230AEB810100F0DEFA8DE80700A6
:1013200064107F1C002CEED1194F7F44AE3F19E0B2
:10133000E80715D007EB04100DF1180A90E80E002D
:101340008AE80E00C068F04201D198190890324630
:10135000012306A903A800F0BFFA03AB83E8070046
:101360006D10641C002DE3D14FF001033246694635
:10137000B8F1000F03A802D000F099FA01E000F0E4
:10138000ABFAC9E90001C9F808200AB0BDE8F08746
:10139000B43B000010B50446AFF300802046BDE822
:1013A0001040FEF740BF000001491820ABBEFEE729
:1013B0002600020070475FEA400C08BF91F0000F62
:1013C0004FEA8C234FEAC12243EA51514FEA1C50A5
:1013D00018BF00F5F0404FEA300018BF41F000415F
:1013E0005FEA6C5C00F02980BCF1FF3F08BF40F071
:1013F00080407047130C06BF12044FF0100C4FF0E2
:10140000000C130E04BF12020CF1080C130F04BFE2
:1014100012010CF1040C930F04BF92000CF1020CAA
:10142000D30F04BF52000CF1010C11464FF0000223
:10143000A0F11F00A0EB0C00704711F0004F08BF97
:10144000704731F000413FF4D5AF0B0C06BF0904E3
:101450004FF0100C4FF0000C0B0E04BF09020CF102
:10146000080C0B0F04BF09010CF1040C8B0F04BF17
:1014700089000CF1020CCB0F04BF49000CF1010CE8
:10148000CCF12003A0EB0C0022FA03F302FA0CF2D9
:1014900041EA030100F10100704720F07F4C80EA2F
:1014A000030023F07F47ACEB070303F57C5300F008
:1014B000004003F1FF032DE980494FEA154B09B4C1
:1014C0004FEA144325EA0B4E24EA03480FF20426A0
:1014D00006EB132749083E785FEA320203FB0667F2
:1014E000C7F5000707FB06F64FEA54374FEAD64622
:1014F00006F1020607FB066CCCF1005C4FEA1C47C4
:101500002CEA074C07FB06F40CFB06F504EB15462A
:101510004FEA961634BF00204FF000404FEAD13713
:1015200006FB07FC4FEA1C4C0CFB0BF7D21B03FB22
:101530000CF761EB07010CFB0EF7B0EB074072EB09
:1015400017420CFB08F734BFA2EB0742B2EB07428D
:1015500061EB17414FEA0C444FEA910706FB07FC89
:101560004FEA1C4C0CFB0BF7B0EBC74072EB573249
:1015700003FB0CF734BFA2EBC742B2EBC74261EBEF
:1015800057310CFB0EF7B0EBC70072EB57720CFB38
:1015900008F734BFA2EBC702B2EBC70261EB577189
:1015A000039F4FEA816141EA921104EBCC044FEAB8
:1015B000D1374FEA826206FB07FC42EA90124FEAFB
:1015C00080604FEA1C4C0CFB0BF7D21B03FB0CF7A3
:1015D00061EB07010CFB0EF7B0EB074072EB174213
:1015E0000CFB08F734BFA2EB0742B2EB074261EBFA
:1015F00017414FEA8C554FEA910704EB9C2406FBF8
:1016000007FC4FEA1C4C0CFB0BF7B0EBC74072EB2E
:10161000573203FB0CF734BFA2EBC742B2EBC74211
:1016200061EB57310CFB0EF7B0EBC70072EB577252
:101630000CFB08F734BFA2EBC702B2EBC70261EBA9
:10164000577115EB4C254FEA816141EA92114FEA3F
:1016500082624FEAD13742EA901206FB07FC44F15E
:1016600000044FEA80604FEA1C4C0CFB0BF7D21BC6
:1016700003FB0CF761EB07010CFB0EF7B0EB074027
:1016800072EB17420CFB08F734BFA2EB0742B2EB38
:10169000074261EB174115EB1C154FEA813141EA16
:1016A00092414FEA823242EA90424FEA80304FEA5A
:1016B0000C7644F1000448EA03434EEA0B484FF02D
:1016C000000EB2EB080C71EB030724BF62463946EB
:1016D0004EEB0E0E4FF0000B0018524149414BEB00
:1016E0000B0BB2EB080C71EB03077BF1000B24BF73
:1016F000624639464EEB0E0E4FF0000B0018524179
:1017000049414BEB0B0BB2EB080C71EB03077BF180
:10171000000B24BF624639464EEB0E0E51EA02071B
:1017200018BF46F0010616EB0E7655F1000254F193
:10173000000103D5BDE88901BDE80088BDE8890145
:10174000BDE80048B619524141EB0101A3F1010384
:10175000704780807F7E7D7C7B7A7978777676751E
:101760007473727171706F6E6E6D6C6C6B6A6A6996
:101770006868676666656464636362616160605F30
:101780005F5E5E5D5D5C5C5B5B5A5A5959585857A9
:101790005756565555555454535352525251515011
:1017A00050504F4F4F4E4E4D4D4D4C4C4C4B4B4B64
:1017B0004A4A4A49494948484847474747464646AA
:1017C00045454544444444434343434242424241E5
:1017D0004141002B9C4630D477002BD01CB54FEAFA
:1017E000370703B44FF010004FF01001BAF1000FAB
:1017F00006D0BCF1000FDCBF40F0080040F008014B
:101800004FF000000FBCBDE810400BF1010BBBF125
:10181000010F08BF5FEA170722BF12F1010211F1A1
:1018200001014FF0004143F1000300F0004043EAA2
:1018300000007047F9D35708D0E746EA064613F18F
:10184000400F4FEA16461FDD13F1200FDFBF16438E
:101850000A46002120335B42BED0C3F1200746EA8E
:10186000064602FA07F74FEA164646EA0706C3F1AC
:10187000200722FA03F201FA07F721FA03F14FF0E9
:10188000000342EA0702A7E746EA020646EA0646DE
:101890004FEA164646EA0106BCBF46EA0646360C43
:1018A0004FF000034FF000024FF0000194E72DE9E4
:1018B000804C9A46934670B491E8380007C831EAE4
:1018C000400C48BF34EA430C03D5FFF7E6FDFFF7B1
:1018D00080FFF0BCBDE8008C2DE9804C9A46934611
:1018E00070B491E8380007C810F0804F08BF13F0BB
:1018F000804F03D100F005F8FFF76BFFF0BCBDE8A7
:10190000008C20F07F4780EA030023F07F4C07EB38
:101910000C03A3F57C5300F00040A3F1FE0392F00A
:10192000000F00F0B38095F0000F00F077802DE9F4
:1019300001494FEA11404FEA144621EA004800FBF2
:1019400006FC24EA064708FB06F607FB08F800FB3E
:1019500007F718EB06484CEB164C4FEA124B18EB06
:1019600007484FEA15464CEB174022EA0B4E0BFB9B
:1019700006FC25EA06470EFB06F607FB0EFE0BFBF0
:1019800007F71EEB064E4CEB164C4FF000061EEB15
:10199000074E4CEB174B18EB0B0840F1000018EB0F
:1019A0000E0B58EB000840F100008F1A4FF00001B9
:1019B0003CBFC943661B14BFB5EB040C00213CBF00
:1019C000C943F61B4FEA17444EEA8E0E27EA044538
:1019D0004FEA1C4704FB07622CEA074C05FB07F79C
:1019E0000CFB05F604FB0CFC16EB074642EB17421A
:1019F00016EB0C4642EB1C421BEB060658EB0202B0
:101A0000414146EA9E0601D5BDE80189B619524119
:101A100041EB0101A3F10103BDE801894FEA14453F
:101A20004FEA114724EA054621EA074C05FB07F473
:101A300006FB07F70CFB06F105FB0CFC11EB07415D
:101A400044EB17444FEA124711EB0C4144EB1C44A2
:101A500022EA074C05FB07F206FB07F70CFB06F62C
:101A600005FB0CFC16EB074642EB174216EB0C4647
:101A700042EB1C456A1854F1000148BF7047B61983
:101A8000524141EB0101A3F10103704795F0000FB2
:101A900037D04FEA11424FEA144721EA024624EABE
:101AA000074C02FB07F106FB07F70CFB06F402FBF1
:101AB0000CFC14EB074441EB17414FEA154714EBBC
:101AC0000C4441EB1C4125EA074C02FB07F506FBE1
:101AD00007F70CFB06F602FB0CFC16EB074645EB82
:101AE000174516EB0C4645EB1C42121951F100014B
:101AF00048BF7047B619524141EB0101A3F1010300
:101B000070474FEA14454FEA114724EA054621EA97
:101B1000074C05FB07F106FB07F70CFB06F24FF03D
:101B2000000605FB0CFC12EB074241EB174112EBE0
:101B30000C4251EB1C4148BF7047921841EB010128
:101B4000A3F101037047000070B504460068816886
:101B5000C943C90717D1816821F00101816000F0F4
:101B60009BFC05460AE000BF00F096FC401B0228E3
:101B700004D920688068C043C00706D02068806808
:101B8000C043C007F0D0002070BDA06A40F0100034
:101B9000A062E06A40F00100E062012070BD10B573
:101BA0000146406A826A12F0500F05D0006A026B4B
:101BB000BDE8104008461047816A41F40071816217
:101BC00001688968C1F3424107290CD1017B51B9F1
:101BD000816A21F480718162816AC90403D4816AB7
:101BE00041F00101816200F085F910BD10B5406A35
:101BF000816A41F040018162C16A41F00401C16221
:101C000000F07AF910BD10B5406A00F074F910BD0B
:101C1000F8B500260446009600688168C943C907E4
:101C20002DD0816841F00101816016481649006895
:101C3000B0FBF1F000E0401E00900028FBD100F066
:101C40002BFC054616E000BF00F026FC401B0228D6
:101C500010D920688068C043C0070BD0A06A40F04C
:101C60001000A062E06A40F00100E06284F82460A5
:101C70000120F8BD20688068C043C007E4D100207F
:101C8000F8BD00002000002040420F00FEE70000E9
:101C90002DE9F04100F000FC134DA968401A2978A5
:101CA00088421FD300F0F8FB0024104E0927A860DB
:101CB000A8882044B0FBF7F107FB110000EB4000BF
:101CC00081198B784A78315C204602F0ABFB641CAA
:101CD000E4B2962CECD3A888401CB0FBF7F107FBCC
:101CE0001100A880BDE8F08124000020734D000899
:101CF00030B590F840500124AC40C56B6C6004686E
:101D000063604368102B036803D099600068C26069
:101D100030BD9A600068C16030BD704772B6FEE7A2
:101D2000F8B500250446009590F8240001280BD052
:101D3000012084F824002046FFF706FF2046FFF725
:101D400067FF060002D050E00220F8BDA06A20F430
:101D5000885040F00200A062022000F02DFC2549CE
:101D60000968B1FBF0F0400000E0401E0090002840
:101D7000FBD12068816841F00801816000F08CFB94
:101D8000074608E000F088FBC01B0A2803D920683A
:101D90008068000715D4206880680007F2D42068A6
:101DA000816841F00401816000F076FB074612E093
:101DB00000F072FBC01B0A280DD92068806840071C
:101DC00009D5A06A20F0020040F01000A06284F85B
:101DD00024500120F8BD206880684007E8D4A06A3C
:101DE00020F0020040F00100A06284F82450304648
:101DF000F8BD000020000020F8B50024009490F801
:101E000024202546012A12D0012280F824204A6885
:101E10001F23072A0DD20668776B521E02EB82023F
:101E200093409F430B6893401F43776319E0022060
:101E3000F8BD06680D2A0AD2376BD21F02EB820268
:101E400093409F430B6893401F43376309E0F76A51
:101E50000D3A02EB820293409F430B6893401F436D
:101E6000F7620A68072306680A2A0AD3F7680A3A5B
:101E700002EB420293409F438B6893401F43F760FD
:101E800008E0376902EB420293409F438B6893401E
:101E90001F4337610A68102A01D0112A20D1124B42
:101EA00002689A4217D193681B0219D4936843F4CD
:101EB000000393600968102912D10C490C4A096883
:101EC000B1FBF2F101EB8101490000E0491E0091F4
:101ED0000029FBD104E0816A41F0200181620124E4
:101EE00080F824502046F8BD002401402000002046
:101EF00040420F0070477047704700002DE9F041E5
:101F00004FF0000704003D467ED0A06A002628B9A5
:101F1000E66284F82460204600F07EF82046FFF751
:101F200013FEA16AC90600D420B1A06A40F01000D7
:101F3000A06269E0A16A21F4885141F00201A16226
:101F40006268E169237B0A4347EA43010A43A168C7
:101F50004FF48077B94209D0012907D05FF0000122
:101F600094F814C0BCF1010F02D00AE03946F7E73B
:101F7000F3B1A36A43F02003A362E36A43F00103D1
:101F8000E3622368D3F804C02CF4694C4CEA010CDA
:101F9000C3F804C021688B68DFF870C003EA0C0343
:101FA00013438B60A168B9420BD0012909D00CE022
:101FB000DFF85CC0A3690CEB43330B4343F40061CF
:101FC000DFE7218A0D05A5F580152168CB6A23F48A
:101FD00070032B43CB62216889680E4B19409142F4
:101FE00008D1E662A16A21F0020141F00101A1627B
:101FF000BDE8F081A06A20F0020040F01000A0626D
:10200000E06A40F00100E0620120F1E7FDF7E1FF46
:1020100000E0FFFFFE0E1FFF70B586B000250646EC
:10202000009501950295039500681A4988422ED1C2
:102030001949886940F400708861886900F400706B
:102040000490886940F0040088618869694600F05E
:102050000400049007200090032001900F4800F036
:1020600021F9104C0E48C4E900058020C4E9025053
:1020700040002061800060612020C4E90605204600
:1020800000F098F808B1FFF749FE3462666206B0C6
:1020900070BD000000240140001002400008014013
:1020A00008000240640000202DE9F04789460446FC
:1020B0003B4900683B4F0E1D9046884201D0B84214
:1020C00007D1306810F4702F03D001252846BDE8F1
:1020D000F08794F8240001280CD0012084F8240013
:1020E0002046FFF795FD05004FF0000004D084F86E
:1020F0002400EBE70220EAE7A16A40F6016291437F
:1021000041F48071A1622168B94218D1326812F499
:10211000702F14D0A16A41F48011A1623168490581
:1021200005D5A16A21F4005141F48051A162A16A50
:10213000C9040AD5E16A21F00601E16206E0A26A5B
:1021400022F48012A2624968E9E7E06284F8240080
:10215000216A15488862216A1448C862216A1448B5
:10216000086321686FF0020008602068816841F40C
:1021700080718160216843464A464C31206A00F0F4
:1021800047F820688168C1F342410729816803D07C
:1021900041F48011816099E741F4A001FAE7000061
:1021A00000240140002801409F1B0008071C000874
:1021B000ED1B000830B528B308C813491422194490
:1021C000B1FBF2F18900C1631049816302214177BB
:1021D0001A6843F6F0718A43D0E900142143D0E92C
:1021E00002452C4321430469214344692143846906
:1021F0002143114319600021416301224277017795
:10220000084630BD012030BDF8FFFDBF0000024090
:1022100070B5044690F82000002501280CD001205C
:1022200084F8200094F821600020012E06D084F864
:1022300020000225284670BD022070BD022684F8C9
:102240002160A0632068066826F00106066020462B
:10225000FFF74EFDE06A00282068016802D041F0D7
:102260000E0106E021F0040101602068016841F0E0
:102270000A0101602068016841F001010160D9E7AD
:1022800070B5044600F008F90546601C02D0044809
:102290000078044400F000F9401BA042FAD370BD5E
:1022A000140000202DE9F84FDFF8B8910024A9F1BF
:1022B000040B23460F2709F1040AABF1040EC9E011
:1022C0000125A5402A40AA427DD1674ED1F804C01D
:1022D000ACEB0608B44532D014DCBCF1030F3AD0A5
:1022E00009DCBCF1000F2AD0BCF1010F1CD0BCF1FD
:1022F000020F31D11DE0BCF1110F17D0BCF1120F4C
:102300002AD119E0B8F5881F19D006DCB8F5803F4E
:1023100015D0B8F5801F1FD111E0B8F5001F0ED001
:10232000B8F5041F18D10AE0CB6815E0CB681B1D77
:1023300012E0CB6808330FE0CB680C330CE08B68FD
:102340002BB1012B4FF0080303D0456104E00423B7
:1023500002E0056100E00023FF2A01D8064601E003
:1023600000F104064FEA840501D9A5F12005D6F84D
:10237000008007FA05FC28EA0C0803FA05F548EA8C
:102380000508C6F800804D68ED0062D5374DAE698E
:1023900046F00106AE61AD6924F0030605F00105C3
:1023A0000095334D06EB050CDCF80850A607360FF8
:1023B00007FA06F825EA0805DFF8B880404503D19A
:1023C0004FF0000817E044E0DFF8AC80404502D150
:1023D0004FF001080FE0DFF8A480404502D14FF034
:1023E000020808E0DFF89880404502D14FF003086A
:1023F00001E04FF0040808FA06F848EA0508CCF8AE
:1024000008804D68D9F80060ED024D4601D51643AD
:1024100000E096432E604D68DAF80060AD02554644
:1024200001D5164300E096432E604D68DBF800604E
:10243000AD035D4601D5164300E096432E604D681E
:10244000DEF80060ED03754601D5164300E09643C3
:102450002E60641C0D682A46E5407FF431AFBDE86C
:10246000F88F000008040140000011100010024025
:102470000000014000080140000C01400010014034
:10248000001401408068084000D0012070470AB164
:10249000016170470904FBE701488068704700004C
:1024A000140000200248816802781144816070475E
:1024B00014000020074810B5016841F010010160C8
:1024C000032000F067F80F2000F006F800F024F871
:1024D000002010BD0020024070B50D4D04464FF4A1
:1024E0007A712878B1FBF0F00A490968B1FBF0F085
:1024F00000F096FB48B9102C07D200222146501E4E
:1025000000F028F800206C6070BD012070BD000054
:1025100014000020200000200C4808B5816941F01B
:1025200001018161816901F001010091C16941F0FE
:102530008051C161C06900F080500090044841683A
:1025400021F0E06141F00071416008BD00100240DF
:1025500000000140F0B40E4B1B680C46C3F302238D
:10256000C3F10705042D00D90425191D072901D23F
:10257000002300E0DB1E012606FA05F1491E21407A
:1025800099409E40761E16403143F0BC01F063BD79
:102590000CED00E0064900F0070208684FF6FF0363
:1025A000184040EA0220034A1043086070470000C8
:1025B0000CED00E00000FA0510B501460020234CA8
:1025C000012922D0022939D010291DD16168226841
:1025D000D20119D51E48C1F38342C903805C0AD5D4
:1025E00061681B4AC1F34041921E515C194AB2FB1B
:1025F000F1F1484301E0184948436168490203D4B6
:1026000040000321B0FBF1F010BD226AC2F30121AA
:10261000012903D1920701D5C80310BD022905D1B4
:10262000626A920702D549F6404010BD0329FCD1E9
:1026300021688903F9D54FF2244010BD00F02AF932
:102640006168C1F38131491C4900DBE70010024099
:10265000FC44000800127A0000093D002DE9F8430F
:1026600005460078354CC00754D0E0690026C0000C
:1026700008D4E06940F08050E061E069012600F094
:10268000805000902E480168C90512D40168804628
:1026900041F480710160FFF7FFFE074605E000BFCF
:1026A000FFF7FAFEC01B642823D8D8F80000C00545
:1026B000F6D5206A10F4407021D0A98801F4407149
:1026C00081421CD0206A1F49012220F440700A6018
:1026D00000220A602062C00711D0FFF7DDFE074626
:1026E00041F2883808E000BFFFF7D6FEC11B414524
:1026F00002D90320BDE8F883206A8007F4D5206A58
:10270000696820F44070084320621EB1E06920F03F
:102710008050E0612878800705D56068A96820F4BA
:102720004040084360602878C00605D56068E968C5
:1027300020F48000084360600020DBE700100240C6
:1027400000700040400442422DE9F0470F4605006A
:1027500061D0434E306800F00700B84209D23068BB
:1027600020F0070038433060306800F00700B842BE
:1027700051D128683B4C810712D5400703D56068CA
:1027800040F4E06060602878000703D5606840F49A
:10279000605060606068A96820F0F00008436060E5
:1027A0002878C00728D06868012810D0216802283E
:1027B00010D0890700292EDA616821F00301014356
:1027C0006160FFF769FE804641F288390DE02168BB
:1027D0008903EFE78901EDE7FFF75EFEA0EB080153
:1027E000494502D90320BDE8F0876068696800F0B8
:1027F0000C00B0EB810FEFD1306800F00700B84259
:102800000BD9306820F0070038433060306800F0A2
:102810000700B84201D00120E5E72878400705D538
:102820006068E96820F4E060084360602878000789
:1028300006D56068296920F4605040EAC1006060F4
:1028400000F038F86168084AC1F30311515CC840D0
:102850000649086006480068FFF73EFE0020C2E710
:1028600000200240001002400C450008200000201B
:10287000180000200448054900684968044AC1F36B
:102880000221515CC8407047200000200010024027
:102890001C4500080448054900684968044AC1F31A
:1028A000C221515CC8407047200000200010024047
:1028B0001C4500080E4A51680E4801F00C03042B19
:1028C00011D0082B0FD10C48C1F38343C903C05C5E
:1028D0000AD55168084AC1F34041921E515C054A2D
:1028E0005043B0FBF1F07047044948437047000083
:1028F0000010024000127A00EA44000800093D007E
:102900002DE9F84F040070D02078C04DC00749D0A1
:102910006868C0F38100012807D06868C0F38100AF
:10292000022809D16868C00306D52868800339D514
:1029300060680028E7D035E06068B0F5803F0BD0D4
:1029400010B1B0F5A02F11D0286820F48030286095
:10295000286820F4802002E0286840F48030286055
:10296000606890B1FFF798FD06460AE0286840F4D9
:1029700080202860F0E700BFFFF78EFD801B6428F1
:1029800073D828688003F7D50CE0FFF785FD06466D
:1029900005E000BFFFF780FD801B6428F0D82868A1
:1029A0008003F7D420789A4E80074FF001094FF04A
:1029B000000839D5686810F00C0F07D06868C0F3BC
:1029C0008100022809D16868C00306D428688007FE
:1029D00014D52069012808D110E02069B0B1C6F8EB
:1029E0000090FFF759FD074605E00AE1FFF754FDA7
:1029F000C01B0228C4D828688007F7D528686169F9
:102A000020F0F80040EAC10028600DE0C6F8008020
:102A1000FFF742FD074604E0FFF73EFDC01B02281A
:102A200023D828688007F7D4207800072CD5794868
:102A3000A169D9B1C0F80090FFF72EFD074604E068
:102A4000FFF72AFDC01B02280FD8686A8007F7D558
:102A500071484FF4FA510068B0FBF1F0009000BFEC
:102A60000098411E0091FAD20EE080E0C0F800808C
:102A7000FFF712FD074604E0FFF70EFDC01B02281A
:102A800075D8686A8007F7D42078400760D5E86970
:102A90000027C00008D4E86940F08050E861E86988
:102AA000012700F0805000905C480168C90513D4EC
:102AB0000168834641F480710160FFF7EDFC8246B6
:102AC00006E000BFFFF7E8FCA0EB0A0064284ED840
:102AD000DBF80000C005F5D5E06801280AD008B190
:102AE000052813D0286A20F001002862286A20F007
:102AF000040002E0286A40F001002862E06841F228
:102B0000883B98B1FFF7C8FC82460BE0286A40F08A
:102B100004002862EEE700BFFFF7BEFCA0EB0A014D
:102B200059455AD8286A8007F6D50CE0FFF7B4FC5F
:102B3000824605E0FFF7B0FCA0EB0A0159454CD8EE
:102B4000286A8007F6D41FB1E86920F08050E86158
:102B5000E06988B36968C1F38101022944D0022881
:102B6000C6F8608004D0FFF797FC044638E034E0F4
:102B7000FFF792FC074604E0FFF78EFCC01B02281B
:102B80002BD828688001F7D4206AB0F5803F05D1A2
:102B90006868A16820F4003008436860D4E908013F
:102BA0000843696821F4741108436860C6F86090AE
:102BB000FFF772FC044606E025E000BFFFF76CFC5F
:102BC000001B022809D828688001F7D51BE000BF48
:102BD000FFF762FC001B022802D90320BDE8F88F32
:102BE00028688001F4D40EE00128F7D06868226AD2
:102BF00000F48031914204D1616A00F4701088427F
:102C000001D00120EAE70020E8E7000000100240C0
:102C10000000424280044242200000200070004038
:102C200010B5401EB0F1807F01D3012010BD4FF0E0
:102C3000E02460610F21601701F00DFA0020A0610F
:102C400007202061002010BD10B590F83C20012A1B
:102C500022D0012280F83C20CA688C6822F440729D
:102C600022434C6822F4806222430C6822F4006202
:102C700022430C6922F4805222434C6922F4005210
:102C80002243C969002322F480420A4301684A644E
:102C900080F83C30002010BD022010BD70B590F8C7
:102CA0003C20012A26D0012480F83C40022280F8F2
:102CB0003D2003685A689D6822F070060A68324316
:102CC0005A600D4B02689A4208D0B2F1804F05D08D
:102CD0000A4B9A4202D00A4B9A4204D1496825F025
:102CE00080031943916080F83D40002180F83C103A
:102CF000084670BD022070BD002C01400004004059
:102D00000008004010B5040003D094F83D0010B155
:102D100007E0012010BD002084F83C00204600F0B0
:102D20001FF8022084F83D00211D206800F08CFF70
:102D3000012084F8460084F83E0084F83F0084F8BF
:102D4000400084F8410084F8420084F8430084F88D
:102D5000440084F8450084F83D00002010BD0000C8
:102D600038B505460068184A1849904208D1886964
:102D700040F400608861886900F40060009038BD0C
:102D8000134A9042FBD1C86940F00400C861C86989
:102D9000114C00F0040000900E482060102060608C
:102DA00000208021C4E9020149002161890061619C
:102DB0002021C4E906102046FFF7FCF908B1FEF710
:102DC000ADFFEC62656238BD002C0140001002408E
:102DD00000080040580002403801002070B5044649
:102DE00090F83C000025012817D0012684F83C60AB
:102DF000022084F83D002068826822F0770222F4E5
:102E00007F4282600868502838D00DDC20284FD0DF
:102E100005DC90B3102811D14AE0022070BD3028A3
:102E200046D040280AD13BE060282FD070280DD032
:102E3000B0F5805F03D0B0F5005F12D0012584F8B3
:102E40003D60002084F83C00284670BDCB68D1E985
:102E50000121206800F0B6FF2068816841F0770109
:102E600009E0CB68D1E90121206800F0ABFF2068C0
:102E7000816841F480418160E1E719E0CA684968EE
:102E8000206801F053F85021206806E0CA684968BC
:102E9000206801F05CF86021206800F09DFFCEE71B
:102EA000CA684968206801F041F840212068F4E7C9
:102EB000226801461046F0E77047000000B585B073
:102EC00000210091019102910391154B0268154870
:102ED00002219A420FD1826942F004028261806924
:102EE000039100F0040004904FF44070CDE900011C
:102EF00069460D4810E00D4B9A420FD1826942F0AD
:102F0000080282618069039100F00800049098151E
:102F1000CDE9000169460648FFF7C4F905B000BDD8
:102F2000002C014000100240000801400008004051
:102F3000000C014070B5044690F83C0000260D4698
:102F400001280FD0012084F83C006AB1042A1DD06A
:102F5000082A2FD00C2A3FD00126002084F83C00FC
:102F6000304670BD022070BD206800F03DFF206833
:102F7000816941F0080181612068816921F00401C3
:102F80008161206881692A69114311E0206800F09D
:102F900053FF2068816941F4006181612068816983
:102FA00021F480618161206881692A6941EA0221F6
:102FB0008161D2E7206800F06BFF2068C16941F0B1
:102FC0000801C1612068C16921F00401C161206864
:102FD000C1692A69114311E0206800F085FF20686B
:102FE000C16941F40061C1612068C16921F4806157
:102FF000C1612068C1692A6941EA0221C161ACE767
:1030000010B5040003D094F83D0010B107E0012092
:1030100010BD002084F83C00204600F01EF802207D
:1030200084F83D00211D206800F00EFE012084F888
:10303000460084F83E0084F83F0084F8400084F89D
:10304000410084F8420084F8430084F8440084F886
:10305000450084F83D00002010BD70477047704760
:1030600010B50446022249B104290ED0082913D014
:1030700094F84100012816D0012010BD94F83E00BC
:103080000128F9D184F83E200FE094F83F00012890
:10309000F2D184F83F2008E094F840000128EBD1F9
:1030A00084F8402001E084F841200122206800F0EB
:1030B00007FE0F492068884203D1426C42F4004267
:1030C00042642068884208D0B0F1804F05D0094999
:1030D000884202D00849884204D1816801F0070182
:1030E000062903D0016841F001010160002010BDF4
:1030F000002C014000040040000800402DE9F04190
:1031000017460D0004464FF000060CD0042D11D0D8
:10311000082D16D094F84100022819D094F84100E7
:10312000012818D07CE094F83E00022810D094F8D2
:103130003E00F5E794F83F00022809D094F83F00DC
:10314000EEE794F84000022802D094F84000E7E748
:103150000220BDE8F081002F62D0002B60D04649EC
:10316000464ADFF81CC102204DB1042D18D0082DAD
:1031700027D084F841000C2D44D0012679E084F852
:103180003E00606A8162606A3946C262606AC0F865
:1031900030C02268606A3432FFF73AF888BB21E019
:1031A00084F83F00A06A8162A06A3946C262A06AC0
:1031B000C0F830C02268A06A3832FFF729F800BB97
:1031C00015E084F84000E06A8162E06A3946C26234
:1031D000E06AC0F830C02268E06A3C32FFF718F8B5
:1031E00078B909E02068C16841F400711EE02068E8
:1031F000C16841F4806119E02068C16841F4006150
:1032000014E00DE0206B8162206B3946C262206BB6
:10321000C0F830C02268206B4032FEF7F9FF08B1D9
:10322000012096E72068C16841F48051C160012205
:103230002946206800F044FD12492068884203D1E5
:10324000426C42F4004242642068884208D0B0F1E7
:10325000804F05D00C49884202D00C49884204D1E5
:10326000816801F00701062903D0016841F00101DE
:10327000016030466DE70000DB3C0008393D000886
:10328000713D0008002C014000040040000800408F
:1032900070B5040004D094F84100002510B106E098
:1032A000012070BD84F84050204600F023F824200F
:1032B00084F841002068C16821F40051C1602046B3
:1032C00000F058FE2068016921F4904101612068F6
:1032D000416921F02A0141612068C16841F400512F
:1032E000C1606564202084F8410084F84200656371
:1032F000002070BD30B585B0002400940194029484
:10330000039400681449884224D11448C16941F4E7
:103310008021C161C16901F480210491816941F07A
:103320000801816180690E4D00F0080004904FF49F
:103330008060009002200190032003906946284697
:10334000FEF7B0FFE814CDE9000469462846029470
:10335000FEF7A8FF05B030BD004800400010024055
:10336000000C0140FEE70000FEB500251B4800955B
:103370000195194902950160891581600124047342
:103380000575032606614FF460214560C161FEF7B3
:10339000B5FD08B1FEF7C2FCCDE9005469460F48FF
:1033A0000294FEF729FD08B1FEF7B8FC0094022450
:1033B000CDE9014669460948FEF71EFD08B1FEF752
:1033C000ADFCCDE9004669460448FEF715FD00282E
:1033D00001D0FEF7A3FCFEBD002401403400002014
:1033E000054808B5416941F001014161406900F0BB
:1033F0000100009008BD0000001002402DE9F041DE
:1034000086B00024394800940194029403948169A1
:1034100041F020018161816901F0200104918169FD
:1034200041F004018161816901F004010491816925
:1034300041F00801816180692D4F00F0080004907F
:1034400000224FF488613846FFF721F8DFF8A480A6
:1034500000224FF202014046FFF719F840201126E2
:10346000CDE90006022569463846CDE90245FEF75A
:1034700019FFCDE9005669464046CDE90245FEF701
:1034800011FF4FF4704000900126CDE901656946B7
:1034900040460395FEF706FF68020090CDE90165FE
:1034A000694638460395FEF7FDFEE8028DE83100D7
:1034B00069463846FEF7F6FEA803CDE900046946E2
:1034C00038460294FEF7EEFE0820CDE90004694676
:1034D00040460294FEF7E6FEF0208DE83100694692
:1034E0004046FEF7DFFE06B0BDE8F0810010024066
:1034F00000080140000C014010B596B000240F9464
:1035000010941194129413941C2168461494FCF79F
:10351000C3FE202107A8FCF7BFFE2D482B49016000
:1035200040F2CF21C0E901141321C0E90314802126
:10353000C0E90541FFF7E6FB08B1FEF7EFFB4FF4EA
:1035400080500F900FA92248FFF748FC08B1FEF702
:10355000E5FB1F48FFF754FD08B1FEF7DFFB1394AE
:1035600013A91B481494FFF799FB08B1FEF7D6FB8B
:103570006020CDE900040294039404940594002291
:10358000694613480694FFF7D5FC08B1FEF7C6FB61
:10359000042269460E48FFF7CDFC08B1FEF7BEFBDA
:1035A0000794089409944FF400500A94CDE90B4015
:1035B00007A907480E94FFF747FB08B1FEF7AEFBDB
:1035C0000348FFF77BFC16B010BD0000002C014043
:1035D000A800002010B58EB0002407940894099428
:1035E0000A940B941C2168460C94FCF755FE1D4868
:1035F0001B49C0E900145921C0E9024104618461FA
:10360000FFF780FB08B1FEF789FB4FF4805007906D
:1036100007A91448FFF7E2FB08B1FEF77FFB11484A
:10362000FFF7EEFC08B1FEF779FB0B940BA90D48F0
:103630000C94FFF733FB08B1FEF770FB6020CDE977
:10364000000402940822694606480494FFF772FCBD
:1036500008B1FEF763FB0348FFF730FC0EB010BD66
:1036600000080040F00000200C4810B50A49016035
:103670004FF4E1314160002181600C22C160C0E95A
:1036800004128161C161FFF703FE002803D0BDE889
:103690001040FEF743BB10BD004800407C010020F5
:1036A000FEE7FEE710B50021074C0A46002004EBB8
:1036B000C1131A54401CC0B28028FAD3491CC9B2A5
:1036C0000829F3D310BD0000C4010020F0B50B445D
:1036D00024E0044685181DE07F2C19D8002917DB4B
:1036E0003F2915DCCE1701EB56764FEAE60C0D4F5D
:1036F00026F0070607EBCC172744A1EB060E97F838
:1037000000C0012606FA0EF62CEA060C87F800C067
:10371000641C24B2A542DFDC491C09B28B42D8DC10
:10372000F0BD0000C401002000B585B03220FEF7D6
:10373000A7FD0D48816941F4007181618069694686
:1037400000F4007004901120019003200390800287
:1037500000900648FEF7A6FD012000F0FBF90120CD
:1037600000F000FA05B000BD00100240000C01405E
:1037700070B500240646802525FA04F0304000D0BC
:10378000012000F0EFF9012000F0E4F9002000F042
:10379000E1F9641CE4B2082CEED3012000F0DAF960
:1037A000BDE87040002000F0D5B910B5012000F050
:1037B000D9F9012000F0CEF9002000F0D3F9BDE8DE
:1037C0001040002000F0C6B910B5002000F0CAF982
:1037D000012000F0BFF9BDE81040012000F0C2B99F
:1037E00010B5FFF7A1FFAE2000F0C4F9D52000F01E
:1037F000C1F9802000F0BEF9A82000F0BBF93F20FD
:1038000000F0B8F9D32000F0B5F9002000F0B2F9CB
:10381000402000F0AFF9A12000F0ACF9C82000F082
:10382000A9F9DA2000F0A6F9122000F0A3F981200E
:1038300000F0A0F9CF2000F09DF9D92000F09AF90E
:10384000F12000F097F9DB2000F094F9302000F02F
:1038500091F9A42000F08EF9A62000F08BF98D20BC
:1038600000F088F9142000F085F9AF2000F082F90B
:10387000FFF718FFBDE8104000F058B90FB470B55D
:10388000C0B014460D46064648AA68464799FCF75C
:10389000F1FC23466A462946304600F091F840B0D4
:1038A00070BC5DF814FB10B50C4640F0B00000F0A1
:1038B00061F9102040EA141000F05CF904F00F00E8
:1038C000BDE8104000F056B908B5082B0DD0062B06
:1038D0000AD10A4B02EB420203EB4202C03A0092C9
:1038E0000823062200F00EF808BD054B03EB021278
:1038F000A2F50072102300920822F3E7144B00088F
:10390000244500082DE9F04F1F4616460D46824615
:103910000024FFF7DBFE7F1EF81707EB5070012134
:10392000DFF898B001EBE00743E000203DE000BF86
:103930000AEB00037F2B36D8E91705EB5171CA104B
:1039400021F00701691A002D03DA521E083112B264
:1039500009B202EB0409B9F1070F0ED8099A04FB6A
:1039600006F802440BEBC91E18F802201EF803C02B
:103970008A404CEA020C0EF803C009F10102072A42
:1039800011D80BEBC91202EB0308099A04FB06FCE1
:10399000024498F880301CF80220C1F10801CA40A6
:1039A000134388F88030401CC0B2B042C0D3641CBE
:1039B000E4B2A742B9DCBDE8F08F0000C4010020EA
:1039C0002DE9FF4F002483B09B4690462546A24632
:1039D000DFF850919EE0100610D403988DF8042073
:1039E000641C2844A4B28DF805A000B25B4604997B
:1039F000FFF76AFF05EB0B0085B28BE00620B0EB0A
:103A0000521F0ED1641CA0B28DF8042018F80010CB
:103A1000002974D08DF80510401C84B28DF806A0E2
:103A20003CE00E20B0EB121F16D1641CA0B28DF842
:103A3000042018F80010002971D0401C80B28DF8C5
:103A4000051018F80010002969D08DF80610401CE8
:103A500084B28DF807A021E01E20B0EBD20F1FD159
:103A6000641CA0B28DF8042018F80010002956D06C
:103A7000401C80B28DF8051018F8001000294ED0B7
:103A8000401C80B28DF8061018F80010002946D0AE
:103A9000401C8DF8071084B28DF808A0002609E0BC
:103AA000641CA4B236E0384601A9FCF71DFC68B1DD
:103AB000761CB6B206EB860000EB461101EB09005E
:103AC000074619A1FCF710FC0028ECD1BBF1080F48
:103AD00003D0BBF1060F1DD112E006EB860000EB10
:103AE000461101EB0900401D009003981023284463
:103AF00000B21A460499FFF705FF103509E00EE001
:103B000003980623284400B23F220499FFF7DCFE05
:103B1000AD1DADB218F80420002A7FF45CAF07B0E9
:103B2000BDE8F08F4E4D00080000000070B5084D54
:103B3000002400212046FFF7B6FE05EBC4108021CB
:103B400000F029F8641CE4B2082CF2D370BD000028
:103B5000C4010020024602210148FEF798BC000083
:103B6000000C0140024640210148FEF790BC0000D5
:103B70000008014010B50446FFF717FE7820FFF754
:103B8000F7FD0020FFF7F4FD2046FFF7F1FDBDE84B
:103B90001040FFF719BE70B50D460646FFF705FE4B
:103BA0007820FFF7E5FD4020FFF7E2FD002404E068
:103BB000305DFFF7DDFD641CE4B2AC42F8D3BDE834
:103BC0007040FFF701BE70477047FEF76BBC30B521
:103BD00093B028216846FCF75FFB14210AA8FCF784
:103BE0005BFB002501200F9510951195010412959E
:103BF0008DE8230004904FF4E010CDE90810022472
:103C000007946846FEF77CFE08B172B6FEE70AA983
:103C10000F2081E831004FF48060CDE90D050221CD
:103C20000AA8FEF791FD08B172B6FEE74FF4004016
:103C300011900F940FA8FEF711FD002801D072B665
:103C4000FEE713B030BD7047F0B50268194B1A4C4F
:103C50001A4D4FF08047984205D0B84203D0A04299
:103C600001D0A84203D122F070064A68324398423C
:103C700005D0B84203D0A04201D0A84203D122F41B
:103C80004074CA6822434C6922F0800222430260D9
:103C90008A68C2620A688262984201D10969016336
:103CA000012141610169C90703D0016921F00101C6
:103CB0000161F0BD002C01400004004000080040FC
:103CC00010B501F01F030121046A99408C4304627E
:103CD000016A9A401143016210BD10B5446A012186
:103CE000626A824205D121778069F8B984F83E1072
:103CF0001CE0A26A824206D1022222778069A8B91A
:103D000084F83F1012E0E26A824206D10422227750
:103D1000806958B984F8401008E0226B824205D1CE
:103D200008222277806908B984F841102046FFF7FD
:103D300095F90020207710BD10B5446A616A814270
:103D400001D101200DE0A16A814201D1022008E0E9
:103D5000E16A814201D1042003E0216B814201D15B
:103D6000082020772046FFF77AF90020207710BD41
:103D700010B5446A0121626A824203D1217784F836
:103D80003E1019E0A26A824204D10220207784F812
:103D90003F1011E0E26A824204D10420207784F8C7
:103DA000401009E0226B824204D10820207784F879
:103DB000411001E084F83D102046FFF77DF8002017
:103DC000207710BD10B5846842EA032224F47F44B2
:103DD0000A432243826010BD826822F070020A43C7
:103DE00042F007018160704730B5036A026A22F031
:103DF000010202624268846924F073050C682C4356
:103E000023F002058B682B430A4DA8420BD123F007
:103E10000805CB6822F440722B434D6923F004035C
:103E200015438A692A434260846149684163036299
:103E300030BD0000002C014030B5026A036A23F057
:103E400010030362436884690D6824F4E64444EA7D
:103E500005248D6822F0200242EA05120B4DA8428B
:103E60000ED1CD6822F0800242EA05124D6923F49A
:103E7000406343EA85038D6922F0400243EA8503EB
:103E80004360846149688163026230BD002C014057
:103E900030B5036A026A22F4807202624268C46921
:103EA00023F4007324F073050C682C438D6843EAF7
:103EB00005230C4DA8420ED1CD6823F4006343EADC
:103EC00005234D6922F4405242EA05128D6923F41C
:103ED000806342EA05124260C4614968C1630362BB
:103EE00030BD0000002C014030B5046A026A22F4A3
:103EF000805202624268C3690D6823F4E64343EAD4
:103F000005238D6824F4005444EA0534064DA84284
:103F100004D14D6922F4804242EA85124260C361B5
:103F200049680164046230BD002C014010B5036A89
:103F3000046A24F001040462846924F0F00444EA71
:103F4000021423F00A020A438461026210BD10B514
:103F5000036A046A24F010040462846923F0A00355
:103F600024F4704444EA023243EA0111826101629E
:103F700010BD000070B5044600680169E26821F4D4
:103F80004051114301612169A068084361690843F8
:103F90002168CA6841F20C639A430243CA602068F0
:103FA0004169A26921F44071114341611E492068B1
:103FB000884202D1FEF76EFC01E0FEF75BFC00EBED
:103FC000C00101EB0012606864218000B2FBF0F3D5
:103FD000B3FBF1F36FF018067343B2FBF0F5B2FBDD
:103FE000F0F605EB8305322303EB0515B5FBF1F580
:103FF000B6FBF1F605F0F00505EB0615B2FBF0F6A1
:10400000B2FBF0F0B0FBF1F06FF01802504306EB9A
:10401000800003EB0010B0FBF1F0216800F00F000E
:104020002844886070BD000000380140FEE7490068
:1040300050EAC12018BF04204A0D18BF40F001000B
:1040400040F2FF72B2EB515F08BF40F0020001285E
:1040500008BF052070470907090E002804DB00F19E
:10406000E02080F80014704700F00F0000F1E0201D
:1040700080F8141D704730380A2801D2012070479B
:10408000002070471CB5FEF715FAFFF7A0FDFFF7FB
:10409000B5F9FFF7A5F9FFF72FFAFFF765F9FFF775
:1040A000E3FAFFF797FAFFF79BFB00F06BF900F0DC
:1040B00095F99948FDF734FE032298499648FDF793
:1040C000F3FF964DDFF858A24FF064094FF47A7B66
:1040D0004FF00A0840F6FF77A5F10C042888464601
:1040E000B0FBF9F1B1FBF6F2B0FBFBF008FB1212EA
:1040F00000EB800002EB4000C0B2A070092801D99B
:10410000093800E00020C1B22170A08885A300EB2F
:10411000400202EBC00000EB01220C20B2FBF0F0E9
:10412000A0808030000A60700091002108220846BB
:10413000FFF7A4FB6888FA214843B0FBF7F080B290
:10414000B0FBF6F106FB1101B0FBF6F0CDE9000182
:1041500077A3082211210020FFF790FBA8884FF4D5
:10416000B4714843B0FBF7F080B2009075A3082209
:1041700021210020FFF782FBFFF7D8FC8021564663
:104180005046FEF77FF901281ED000224FF48051DF
:104190003046FEF77CF900221146104600F064F923
:1041A00000224FF400413046FEF771F900224FF42F
:1041B00000513046FEF76BF900224FF48041304643
:1041C000FEF765F900226EE040213046FEF75AF90D
:1041D00001283DD05FF000024FF480513046FEF7D9
:1041E00056F908213046FEF74DF9012832D0002259
:1041F0004FF480413046FEF74AF94FF400415448ED
:10420000FEF740F9012827D05FF000024FF400517B
:104210003046FEF73CF910213046FEF733F901280D
:104220001CD020213046FEF72DF9012841D0002175
:10423000022000F091F8012291024548FEF727F98B
:104240000122D1033046FEF722F9FDF721FD45E7B3
:104250000122C1E70122CBE70122D7E761780120E3
:1042600000F07AF86078E178884208D20122D10320
:104270003046FEF70CF9FEF70FF9A0600CE0FEF7F0
:104280000BF9A168401AB0F5FA7F05D300224FF46C
:1042900000413046FEF7FBF82E496078E070087068
:1042A00000F07EF801224FF480612948FEF7EFF814
:1042B00014E74FF480512648FEF7E4F838B14FF484
:1042C00080512348FEF7DEF8012808D010E061781D
:1042D000002000F041F80022FF21104606E00021F6
:1042E000022000F039F800221146FF2000F0BCF84F
:1042F00000224FF480611648FEF7C9F80122D1036D
:104300003046FEF7C4F8012291033046FEF7BFF8AD
:10431000012251033046C9E7340000200C00002080
:10432000000C01406761733A2530336420000000BF
:10433000766F6C746167653A253032642E25645659
:1043400000000000616E676C653A25303364000040
:104350000008014025000020094A10B51368002418
:1043600038B1012807D0022802D15C631068846349
:1043700010BD5963FAE75C631068816310BD0000EB
:10438000A800002010B500210448FEF769FEBDE832
:10439000104004210148FEF763BE0000A800002081
:1043A00010B5FEF779F80C4CE168401AA178884204
:1043B00011D3FEF771F8E06060781321C0EB0020A4
:1043C000B0FBF1F0C0F1FF00C1B20022BDE8104027
:1043D000FF2000F049B810BD2400002010B50024D3
:1043E00000231A461946204600F01CF8641CE4B26B
:1043F000962CF5D3094A4FF46160002140F60A7308
:1044000022F81010401C80B29842F9D3BDE8104049
:10441000024A08210248FEF771BE0000C4050020D0
:10442000F0000020F0B596281AD2120442EA0122C8
:104430001A430021012632250A4B00EB40001927C0
:10444000C1F1170C06FA0CF4144201EBC00402D0BF
:1044500023F8145001E023F81470491C1829EFDBED
:10446000F0BD0000C4050020F0B515460E46074615
:1044700000242B46324639462046FFF7D3FF641C02
:10448000E4B2962CF5D3F0BD10B500290AD0087817
:10449000002807D005487844FBF726FF002801D004
:1044A000002010BD0248784410BD0000160A00002C
:1044B0000E0A000010B500290AD00878002807D09D
:1044C00005487844FBF710FF002801D0002010BDFC
:1044D0000248784410BD0000060A0000FE090000F2
:1044E000FCF76FBBFCF7A4BC01020203040506073E
:1044F00008090A0B0C0D0E0F10100102020304052F
:10450000060708090A0B0C0D0E0F10100000000022
:104510000000000001020304060708090000000073
:104520000102030400000000000000000000000081
:1045300000000000000000F8000000000000003350
:104540003000000000160E00160E000000000000F3
:104550000000000040C07840C0784000043F0404E0
:104560003F040400007088FC08300000001820FFA1
:10457000211E0000F008F000E018000000211C03DC
:104580001E211E0000F00888700000001E21232458
:1045900019272110000000160E0000000000000086
:1045A00000000000000000E0180402000000000706
:1045B0001820400000020418E0000000004020180D
:1045C00007000000404080F0804040000202010FE0
:1045D00001020200000000F0000000000101011FC4
:1045E00001010100000000000000000000B07000A8
:1045F00000000000000000000000000000010101B8
:104600000101010100000000000000000030300046
:104610000000000000000000806018040060180620
:104620000100000000E010080810E000000F10205A
:1046300020100F00001010F8000000000020203FA4
:10464000202000000070080808887000003028242E
:1046500022213000003008888848300000182020CF
:1046600020110E000000C02010F8000000070424F4
:10467000243F240000F80888880808000019212039
:1046800020110E0000E0108888180000000F112093
:1046900020110E0000380808C83808000000003F4C
:1046A000000000000070880808887000001C2221AB
:1046B00021221C0000E010080810E0000000312258
:1046C00022110F00000000C0C000000000000030F8
:1046D00030000000000000C0C0000000000080B0FA
:1046E000700000000000804020100800000102045B
:1046F00008102000404040404040400004040404B2
:10470000040404000008102040800000002010086D
:1047100004020100007048080808F00000000030A2
:1047200036010000C030C828E810E0000718272430
:1047300023140B000000C038E0000000203C2302DE
:104740000227382008F8888888700000203F202041
:1047500020110E00C0300808080838000718202073
:104760002010080008F808080810E000203F20206A
:1047700020100F0008F88888E8081000203F20204B
:104780002320180008F88888E8081000203F20003F
:1047900003000000C0300808083800000718202077
:1047A000221E020008F808000008F808203F210136
:1047B00001213F20000808F8080800000020203FE1
:1047C0002020000000000808F8080800C080808051
:1047D0007F00000008F888C028180800203F20014A
:1047E0002638200008F8080000000000203F2020A4
:1047F0002020300008F8F800F8F80800203F003FBB
:10480000003F200008F830C00008F808203F2000D2
:1048100007183F00E01008080810E0000F102020E3
:1048200020100F0008F808080808F000203F2101B8
:1048300001010000E01008080810E0000F1824240F
:1048400038504F0008F8888888887000203F200082
:10485000030C302000708808080838000038202138
:1048600021221C00180808F8080818000000203F42
:104870002000000008F808000008F808001F2020A9
:1048800020201F000878880000C83808000007387A
:104890000E010000F80800F80008F800033C0700CB
:1048A000073C0300081868808068180820302C0333
:1048B000032C30200838C800C83808000000203F0A
:1048C0002000000010080808C838080020382621F9
:1048D00020201800000000FE020202000000007FFD
:1048E00040404000000C30C000000000000000010B
:1048F0000638C00000020202FE00000000404040F6
:104900007F000000002010080408102000000000B4
:104910000000000000000000000000008080808097
:104920008080808000020408000000000000000079
:104930000000000000008080808000000019242218
:1049400022223F2008F8008080000000003F112054
:1049500020110E000000008080800000000E112059
:1049600020201100000000808088F800000E112037
:1049700020103F200000808080800000001F222245
:1049800022221300008080F0888888180020203FB1
:10499000202000000000808080808000006B9494C4
:1049A0009493600008F8008080800000203F210080
:1049B00000203F2000809898000000000020203F49
:1049C00020200000000000809898000000C0808037
:1049D000807F000008F8000080808000203F2402D3
:1049E0002D302000000808F8000000000020203FC3
:1049F000202000008080808080808000203F200078
:104A00003F20003F008080008080000000203F2188
:104A100000203F200000808080800000001F2020B8
:104A200020201F00808000808000000080FFA120E7
:104A300020110E000000008080808000000E1120F8
:104A400020A0FF80808080008080800020203F2187
:104A5000200001000000808080808000003324243A
:104A600024241900008080E0808000000000001FE6
:104A7000202000008080000000808000001F202097
:104A800020103F20808080000080808000010E3058
:104A90000806010080800080008080800F300C03B9
:104AA0000C300F0000808000808080000020312EBC
:104AB0000E312000808080000080808080818E7098
:104AC0001806010000808080808080000021302C4A
:104AD0002221300000000000807C02020000000063
:104AE000003F404000000000FF0000000000000008
:104AF000FF0000000002027C800000000040403FF8
:104B000000000000008040408000008000000000A5
:104B1000000101000000000000000000002F000064
:104B200000000700070000147F147F1400242A7F70
:104B30002A120023130864620036495522500000EF
:104B40000007000000001C224100000041221C0060
:104B50000014083E08140008083E0808000000A0E1
:104B600060000008080808080000606000000020DD
:104B700010080402003E5149453E0000427F4000BB
:104B8000004261514946002141454B310018141241
:104B90007F10002745454539003C4A49493000010E
:104BA0007109050300364949493600064949291E5D
:104BB00000003636000000005636000000081422BF
:104BC00041000014141414140000412214080002BF
:104BD00001510906003E4955592E007C1211127CE4
:104BE000007F49494936003E41414122007F414111
:104BF000221C007F49494941007F09090901003E03
:104C00004149497A007F0808087F0000417F410040
:104C1000002040413F01007F08142241007F4040B6
:104C20004040007F020C027F007F0408107F003E9E
:104C30004141413E007F09090906003E4151215E84
:104C4000007F091929460046494949310001017F81
:104C50000101003F4040403F001F2040201F003F17
:104C60004038403F006314081463000708700807C9
:104C700000615149454300007F41410000020408A2
:104C80001020000041417F000004020102040040A6
:104C90004040404000000102040000205454547879
:104CA000007F484444380038444444200038444499
:104CB000487F00385454541800087E090102001837
:104CC000A4A4A47C007F080404780000447D400074
:104CD000004080847D00007F102844000000417F58
:104CE0004000007C04180478007C08040478003834
:104CF0004444443800FC242424180018242418FCBC
:104D0000007C0804040800485454542000043F4424
:104D10004020003C4040207C001C2040201C003CE7
:104D20004030403C004428102844001CA0A0A07C37
:104D3000004464544C440000087F41000000007FA0
:104D400000000000417F080000080408100800006F
:104D5000000000FF01010131090909098971010100
:104D60000101FFFF8080808080809681808080802C
:104D70008080FFDDA0DDDA70D6FF00FFBA55D38A50
:104D80002BE29400D39932CC8000804B008200004B
:104D90000000000000000000303132333435363777
:104DA000383941424344454640305800303132336F
:104DB000343536373839616263646566403078006F
:104DC00004000008000000000000000200010000D4
:104DD00010303132333435363738396162636465C7
:104DE00066787000303132333435363738394142E5
:104DF000434445465850000002400000000000A017
:104E00000000000005400000000000C80000000095
:104E10000C4000000000409C000000001940000011
:104E20000020BCBE0000000034400000BFC91B8E43
:104E300000000004B5400000504BCFD06607E2CF21
:104E4000010000006C4100003E8251AADFEEA73451
:104E500001000000D9420000DCB5A0E23A301F9703
:104E6000FFFFFFFFB4450000FD25A0C8E9A3C14F27
:104E7000FFFFFFFFFF3F0000000000800000000078
:104E8000FF3F00000000008000000000D84F000835
:104E90000000002034000000280100080C50000829
:104EA00034000020042A0000440100081C00000017
:104EB00043000000F8FFFFFF0C0000000E000000A0
:104EC0000F0000002E000000100100004300000051
:104ED000F8FFFFFF0040404040404040404041411B
:104EE00041414140404040404040404040404040BF
:104EF0004040404040050202020202020202020259
:104F00000202020202202020202020202020200255
:104F100002020202020290909090909010101010E5
:104F20001010101010101010101010101010101081
:104F30000202020202028888888888880808080815
:104F400008080808080808080808080808080808E1
:104F50000202020240000000000000000000000009
:104F60000000000000000000000000000000000041
:104F70000000000000000000000000000000000031
:104F80000000000000000000000000000000000021
:104F90000000000000000000000000000000000011
:104FA0000000000000000000000000000000000001
:104FB00000000000000000000000000000000000F1
:104FC00000000000000000000000000000000000E1
:104FD00000000000000000000000000000000000D1
:104FE00000000000000000000000000001000000C0
:104FF000100000000000000000127A005000320093
:0C500000000000000000000000000000A4
:04000005080000ED02
:00000001FF
